{
  "_format": "hh-sol-artifact-1",
  "contractName": "DelegateL2",
  "sourceName": "contracts/DelegateL2.sol",
  "abi": [
    {
      "anonymous": false,
      "inputs": [
        {
          "indexed": false,
          "internalType": "address",
          "name": "from",
          "type": "address"
        },
        {
          "indexed": false,
          "internalType": "address",
          "name": "to",
          "type": "address"
        },
        {
          "indexed": false,
          "internalType": "uint256",
          "name": "amount",
          "type": "uint256"
        }
      ],
      "name": "Delegated",
      "type": "event"
    },
    {
      "anonymous": false,
      "inputs": [
        {
          "indexed": false,
          "internalType": "address",
          "name": "from",
          "type": "address"
        },
        {
          "indexed": false,
          "internalType": "address",
          "name": "to",
          "type": "address"
        },
        {
          "indexed": false,
          "internalType": "uint256",
          "name": "amount",
          "type": "uint256"
        }
      ],
      "name": "MoveDelegated",
      "type": "event"
    },
    {
      "inputs": [
        {
          "internalType": "contract ERC20",
          "name": "token",
          "type": "address"
        },
        {
          "internalType": "address",
          "name": "to",
          "type": "address"
        },
        {
          "internalType": "uint256",
          "name": "amount",
          "type": "uint256"
        }
      ],
      "name": "delegate",
      "outputs": [],
      "stateMutability": "nonpayable",
      "type": "function"
    },
    {
      "inputs": [
        {
          "internalType": "address",
          "name": "",
          "type": "address"
        },
        {
          "internalType": "address",
          "name": "",
          "type": "address"
        },
        {
          "internalType": "address",
          "name": "",
          "type": "address"
        }
      ],
      "name": "delegated",
      "outputs": [
        {
          "internalType": "uint256",
          "name": "",
          "type": "uint256"
        }
      ],
      "stateMutability": "view",
      "type": "function"
    },
    {
      "inputs": [
        {
          "internalType": "address",
          "name": "",
          "type": "address"
        },
        {
          "internalType": "address",
          "name": "",
          "type": "address"
        }
      ],
      "name": "delegatedOf",
      "outputs": [
        {
          "internalType": "uint256",
          "name": "",
          "type": "uint256"
        }
      ],
      "stateMutability": "view",
      "type": "function"
    },
    {
      "inputs": [
        {
          "internalType": "contract ERC20",
          "name": "token",
          "type": "address"
        },
        {
          "internalType": "address",
          "name": "to",
          "type": "address"
        },
        {
          "internalType": "uint256",
          "name": "amount",
          "type": "uint256"
        }
      ],
      "name": "moveDelegate",
      "outputs": [],
      "stateMutability": "nonpayable",
      "type": "function"
    }
  ],
  "bytecode": "0x608060405234801561001057600080fd5b5061046d806100206000396000f3fe608060405234801561001057600080fd5b506004361061004c5760003560e01c80635cd45e8b14610051578063c26f3acf1461008e578063f9f2957a146100a3578063fb2bea65146100b6575b600080fd5b61007c61005f366004610307565b600160209081526000928352604080842090915290825290205481565b60405190815260200160405180910390f35b6100a161009c366004610340565b6100e6565b005b6100a16100b1366004610340565b61022b565b61007c6100c4366004610381565b6000602081815293815260408082208552928152828120909352825290205481565b6040516323b872dd60e01b8152336004820152306024820152604481018290526001600160a01b038416906323b872dd906064016020604051808303816000875af1158015610139573d6000803e3d6000fd5b505050506040513d601f19601f8201168201806040525081019061015d91906103cc565b506001600160a01b0380841660009081526020818152604080832033845282528083209386168352929052908120805483929061019b90849061040b565b90915550506001600160a01b038084166000908152600160209081526040808320938616835292905290812080548392906101d790849061040b565b9091555050604080513381526001600160a01b03841660208201529081018290527fe5541a6b6103d4fa7e021ed54fad39c66f27a76bd13d374cf6240ae6bd0bb72b906060015b60405180910390a1505050565b6001600160a01b03808416600090815260208181526040808320338452825280832093861683529290529081208054839290610268908490610424565b90915550506001600160a01b038084166000908152600160209081526040808320938616835292905290812080548392906102a4908490610424565b9091555050604080513381526001600160a01b03841660208201529081018290527f159511905cd517af2fc97360c0031aaec7e70fb88f9ad1aae128deee0b562f0f9060600161021e565b6001600160a01b038116811461030457600080fd5b50565b6000806040838503121561031a57600080fd5b8235610325816102ef565b91506020830135610335816102ef565b809150509250929050565b60008060006060848603121561035557600080fd5b8335610360816102ef565b92506020840135610370816102ef565b929592945050506040919091013590565b60008060006060848603121561039657600080fd5b83356103a1816102ef565b925060208401356103b1816102ef565b915060408401356103c1816102ef565b809150509250925092565b6000602082840312156103de57600080fd5b815180151581146103ee57600080fd5b9392505050565b634e487b7160e01b600052601160045260246000fd5b8082018082111561041e5761041e6103f5565b92915050565b8181038181111561041e5761041e6103f556fea26469706673582212202c3f54cc910c301f97a2710a89690d09f8dae35f58b75bb4f52b6c45b5648b7b64736f6c63430008140033",
  "linkReferences": {},
  "deployedLinkReferences": {}
}