{
  "_format": "hh-sol-artifact-1",
  "contractName": "VotesTokenL1",
  "sourceName": "contracts/VotesTokenL1.sol",
  "abi": [
    {
      "inputs": [],
      "stateMutability": "nonpayable",
      "type": "constructor"
    },
    {
      "inputs": [],
      "name": "CheckpointUnorderedInsertion",
      "type": "error"
    },
    {
      "inputs": [],
      "name": "ECDSAInvalidSignature",
      "type": "error"
    },
    {
      "inputs": [
        {
          "internalType": "uint256",
          "name": "length",
          "type": "uint256"
        }
      ],
      "name": "ECDSAInvalidSignatureLength",
      "type": "error"
    },
    {
      "inputs": [
        {
          "internalType": "bytes32",
          "name": "s",
          "type": "bytes32"
        }
      ],
      "name": "ECDSAInvalidSignatureS",
      "type": "error"
    },
    {
      "inputs": [
        {
          "internalType": "uint256",
          "name": "increasedSupply",
          "type": "uint256"
        },
        {
          "internalType": "uint256",
          "name": "cap",
          "type": "uint256"
        }
      ],
      "name": "ERC20ExceededSafeSupply",
      "type": "error"
    },
    {
      "inputs": [
        {
          "internalType": "address",
          "name": "spender",
          "type": "address"
        },
        {
          "internalType": "uint256",
          "name": "allowance",
          "type": "uint256"
        },
        {
          "internalType": "uint256",
          "name": "needed",
          "type": "uint256"
        }
      ],
      "name": "ERC20InsufficientAllowance",
      "type": "error"
    },
    {
      "inputs": [
        {
          "internalType": "address",
          "name": "sender",
          "type": "address"
        },
        {
          "internalType": "uint256",
          "name": "balance",
          "type": "uint256"
        },
        {
          "internalType": "uint256",
          "name": "needed",
          "type": "uint256"
        }
      ],
      "name": "ERC20InsufficientBalance",
      "type": "error"
    },
    {
      "inputs": [
        {
          "internalType": "address",
          "name": "approver",
          "type": "address"
        }
      ],
      "name": "ERC20InvalidApprover",
      "type": "error"
    },
    {
      "inputs": [
        {
          "internalType": "address",
          "name": "receiver",
          "type": "address"
        }
      ],
      "name": "ERC20InvalidReceiver",
      "type": "error"
    },
    {
      "inputs": [
        {
          "internalType": "address",
          "name": "sender",
          "type": "address"
        }
      ],
      "name": "ERC20InvalidSender",
      "type": "error"
    },
    {
      "inputs": [
        {
          "internalType": "address",
          "name": "spender",
          "type": "address"
        }
      ],
      "name": "ERC20InvalidSpender",
      "type": "error"
    },
    {
      "inputs": [
        {
          "internalType": "uint256",
          "name": "deadline",
          "type": "uint256"
        }
      ],
      "name": "ERC2612ExpiredSignature",
      "type": "error"
    },
    {
      "inputs": [
        {
          "internalType": "address",
          "name": "signer",
          "type": "address"
        },
        {
          "internalType": "address",
          "name": "owner",
          "type": "address"
        }
      ],
      "name": "ERC2612InvalidSigner",
      "type": "error"
    },
    {
      "inputs": [
        {
          "internalType": "uint256",
          "name": "timepoint",
          "type": "uint256"
        },
        {
          "internalType": "uint48",
          "name": "clock",
          "type": "uint48"
        }
      ],
      "name": "ERC5805FutureLookup",
      "type": "error"
    },
    {
      "inputs": [],
      "name": "ERC6372InconsistentClock",
      "type": "error"
    },
    {
      "inputs": [
        {
          "internalType": "address",
          "name": "account",
          "type": "address"
        },
        {
          "internalType": "uint256",
          "name": "currentNonce",
          "type": "uint256"
        }
      ],
      "name": "InvalidAccountNonce",
      "type": "error"
    },
    {
      "inputs": [],
      "name": "InvalidShortString",
      "type": "error"
    },
    {
      "inputs": [
        {
          "internalType": "uint8",
          "name": "bits",
          "type": "uint8"
        },
        {
          "internalType": "uint256",
          "name": "value",
          "type": "uint256"
        }
      ],
      "name": "SafeCastOverflowedUintDowncast",
      "type": "error"
    },
    {
      "inputs": [
        {
          "internalType": "string",
          "name": "str",
          "type": "string"
        }
      ],
      "name": "StringTooLong",
      "type": "error"
    },
    {
      "inputs": [
        {
          "internalType": "uint256",
          "name": "expiry",
          "type": "uint256"
        }
      ],
      "name": "VotesExpiredSignature",
      "type": "error"
    },
    {
      "anonymous": false,
      "inputs": [
        {
          "indexed": true,
          "internalType": "address",
          "name": "owner",
          "type": "address"
        },
        {
          "indexed": true,
          "internalType": "address",
          "name": "spender",
          "type": "address"
        },
        {
          "indexed": false,
          "internalType": "uint256",
          "name": "value",
          "type": "uint256"
        }
      ],
      "name": "Approval",
      "type": "event"
    },
    {
      "anonymous": false,
      "inputs": [
        {
          "indexed": true,
          "internalType": "address",
          "name": "delegator",
          "type": "address"
        },
        {
          "indexed": true,
          "internalType": "address",
          "name": "fromDelegate",
          "type": "address"
        },
        {
          "indexed": true,
          "internalType": "address",
          "name": "toDelegate",
          "type": "address"
        }
      ],
      "name": "DelegateChanged",
      "type": "event"
    },
    {
      "anonymous": false,
      "inputs": [
        {
          "indexed": true,
          "internalType": "address",
          "name": "delegate",
          "type": "address"
        },
        {
          "indexed": false,
          "internalType": "uint256",
          "name": "previousVotes",
          "type": "uint256"
        },
        {
          "indexed": false,
          "internalType": "uint256",
          "name": "newVotes",
          "type": "uint256"
        }
      ],
      "name": "DelegateVotesChanged",
      "type": "event"
    },
    {
      "anonymous": false,
      "inputs": [],
      "name": "EIP712DomainChanged",
      "type": "event"
    },
    {
      "anonymous": false,
      "inputs": [
        {
          "indexed": true,
          "internalType": "address",
          "name": "from",
          "type": "address"
        },
        {
          "indexed": true,
          "internalType": "address",
          "name": "to",
          "type": "address"
        },
        {
          "indexed": false,
          "internalType": "uint256",
          "name": "value",
          "type": "uint256"
        }
      ],
      "name": "Transfer",
      "type": "event"
    },
    {
      "inputs": [],
      "name": "CLOCK_MODE",
      "outputs": [
        {
          "internalType": "string",
          "name": "",
          "type": "string"
        }
      ],
      "stateMutability": "view",
      "type": "function"
    },
    {
      "inputs": [],
      "name": "DOMAIN_SEPARATOR",
      "outputs": [
        {
          "internalType": "bytes32",
          "name": "",
          "type": "bytes32"
        }
      ],
      "stateMutability": "view",
      "type": "function"
    },
    {
      "inputs": [
        {
          "internalType": "address",
          "name": "owner",
          "type": "address"
        },
        {
          "internalType": "address",
          "name": "spender",
          "type": "address"
        }
      ],
      "name": "allowance",
      "outputs": [
        {
          "internalType": "uint256",
          "name": "",
          "type": "uint256"
        }
      ],
      "stateMutability": "view",
      "type": "function"
    },
    {
      "inputs": [
        {
          "internalType": "address",
          "name": "spender",
          "type": "address"
        },
        {
          "internalType": "uint256",
          "name": "value",
          "type": "uint256"
        }
      ],
      "name": "approve",
      "outputs": [
        {
          "internalType": "bool",
          "name": "",
          "type": "bool"
        }
      ],
      "stateMutability": "nonpayable",
      "type": "function"
    },
    {
      "inputs": [
        {
          "internalType": "address",
          "name": "account",
          "type": "address"
        }
      ],
      "name": "balanceOf",
      "outputs": [
        {
          "internalType": "uint256",
          "name": "",
          "type": "uint256"
        }
      ],
      "stateMutability": "view",
      "type": "function"
    },
    {
      "inputs": [
        {
          "internalType": "address",
          "name": "account",
          "type": "address"
        },
        {
          "internalType": "uint32",
          "name": "pos",
          "type": "uint32"
        }
      ],
      "name": "checkpoints",
      "outputs": [
        {
          "components": [
            {
              "internalType": "uint48",
              "name": "_key",
              "type": "uint48"
            },
            {
              "internalType": "uint208",
              "name": "_value",
              "type": "uint208"
            }
          ],
          "internalType": "struct Checkpoints.Checkpoint208",
          "name": "",
          "type": "tuple"
        }
      ],
      "stateMutability": "view",
      "type": "function"
    },
    {
      "inputs": [],
      "name": "clock",
      "outputs": [
        {
          "internalType": "uint48",
          "name": "",
          "type": "uint48"
        }
      ],
      "stateMutability": "view",
      "type": "function"
    },
    {
      "inputs": [],
      "name": "decimals",
      "outputs": [
        {
          "internalType": "uint8",
          "name": "",
          "type": "uint8"
        }
      ],
      "stateMutability": "view",
      "type": "function"
    },
    {
      "inputs": [
        {
          "internalType": "address",
          "name": "delegatee",
          "type": "address"
        }
      ],
      "name": "delegate",
      "outputs": [],
      "stateMutability": "nonpayable",
      "type": "function"
    },
    {
      "inputs": [
        {
          "internalType": "address",
          "name": "delegatee",
          "type": "address"
        },
        {
          "internalType": "uint256",
          "name": "nonce",
          "type": "uint256"
        },
        {
          "internalType": "uint256",
          "name": "expiry",
          "type": "uint256"
        },
        {
          "internalType": "uint8",
          "name": "v",
          "type": "uint8"
        },
        {
          "internalType": "bytes32",
          "name": "r",
          "type": "bytes32"
        },
        {
          "internalType": "bytes32",
          "name": "s",
          "type": "bytes32"
        }
      ],
      "name": "delegateBySig",
      "outputs": [],
      "stateMutability": "nonpayable",
      "type": "function"
    },
    {
      "inputs": [
        {
          "internalType": "address",
          "name": "account",
          "type": "address"
        }
      ],
      "name": "delegates",
      "outputs": [
        {
          "internalType": "address",
          "name": "",
          "type": "address"
        }
      ],
      "stateMutability": "view",
      "type": "function"
    },
    {
      "inputs": [],
      "name": "eip712Domain",
      "outputs": [
        {
          "internalType": "bytes1",
          "name": "fields",
          "type": "bytes1"
        },
        {
          "internalType": "string",
          "name": "name",
          "type": "string"
        },
        {
          "internalType": "string",
          "name": "version",
          "type": "string"
        },
        {
          "internalType": "uint256",
          "name": "chainId",
          "type": "uint256"
        },
        {
          "internalType": "address",
          "name": "verifyingContract",
          "type": "address"
        },
        {
          "internalType": "bytes32",
          "name": "salt",
          "type": "bytes32"
        },
        {
          "internalType": "uint256[]",
          "name": "extensions",
          "type": "uint256[]"
        }
      ],
      "stateMutability": "view",
      "type": "function"
    },
    {
      "inputs": [
        {
          "internalType": "uint256",
          "name": "timepoint",
          "type": "uint256"
        }
      ],
      "name": "getPastTotalSupply",
      "outputs": [
        {
          "internalType": "uint256",
          "name": "",
          "type": "uint256"
        }
      ],
      "stateMutability": "view",
      "type": "function"
    },
    {
      "inputs": [
        {
          "internalType": "address",
          "name": "account",
          "type": "address"
        },
        {
          "internalType": "uint256",
          "name": "timepoint",
          "type": "uint256"
        }
      ],
      "name": "getPastVotes",
      "outputs": [
        {
          "internalType": "uint256",
          "name": "",
          "type": "uint256"
        }
      ],
      "stateMutability": "view",
      "type": "function"
    },
    {
      "inputs": [
        {
          "internalType": "address",
          "name": "account",
          "type": "address"
        }
      ],
      "name": "getVotes",
      "outputs": [
        {
          "internalType": "uint256",
          "name": "",
          "type": "uint256"
        }
      ],
      "stateMutability": "view",
      "type": "function"
    },
    {
      "inputs": [],
      "name": "name",
      "outputs": [
        {
          "internalType": "string",
          "name": "",
          "type": "string"
        }
      ],
      "stateMutability": "view",
      "type": "function"
    },
    {
      "inputs": [
        {
          "internalType": "address",
          "name": "owner",
          "type": "address"
        }
      ],
      "name": "nonces",
      "outputs": [
        {
          "internalType": "uint256",
          "name": "",
          "type": "uint256"
        }
      ],
      "stateMutability": "view",
      "type": "function"
    },
    {
      "inputs": [
        {
          "internalType": "address",
          "name": "account",
          "type": "address"
        }
      ],
      "name": "numCheckpoints",
      "outputs": [
        {
          "internalType": "uint32",
          "name": "",
          "type": "uint32"
        }
      ],
      "stateMutability": "view",
      "type": "function"
    },
    {
      "inputs": [
        {
          "internalType": "address",
          "name": "owner",
          "type": "address"
        },
        {
          "internalType": "address",
          "name": "spender",
          "type": "address"
        },
        {
          "internalType": "uint256",
          "name": "value",
          "type": "uint256"
        },
        {
          "internalType": "uint256",
          "name": "deadline",
          "type": "uint256"
        },
        {
          "internalType": "uint8",
          "name": "v",
          "type": "uint8"
        },
        {
          "internalType": "bytes32",
          "name": "r",
          "type": "bytes32"
        },
        {
          "internalType": "bytes32",
          "name": "s",
          "type": "bytes32"
        }
      ],
      "name": "permit",
      "outputs": [],
      "stateMutability": "nonpayable",
      "type": "function"
    },
    {
      "inputs": [],
      "name": "symbol",
      "outputs": [
        {
          "internalType": "string",
          "name": "",
          "type": "string"
        }
      ],
      "stateMutability": "view",
      "type": "function"
    },
    {
      "inputs": [],
      "name": "totalSupply",
      "outputs": [
        {
          "internalType": "uint256",
          "name": "",
          "type": "uint256"
        }
      ],
      "stateMutability": "view",
      "type": "function"
    },
    {
      "inputs": [
        {
          "internalType": "address",
          "name": "to",
          "type": "address"
        },
        {
          "internalType": "uint256",
          "name": "value",
          "type": "uint256"
        }
      ],
      "name": "transfer",
      "outputs": [
        {
          "internalType": "bool",
          "name": "",
          "type": "bool"
        }
      ],
      "stateMutability": "nonpayable",
      "type": "function"
    },
    {
      "inputs": [
        {
          "internalType": "address",
          "name": "from",
          "type": "address"
        },
        {
          "internalType": "address",
          "name": "to",
          "type": "address"
        },
        {
          "internalType": "uint256",
          "name": "value",
          "type": "uint256"
        }
      ],
      "name": "transferFrom",
      "outputs": [
        {
          "internalType": "bool",
          "name": "",
          "type": "bool"
        }
      ],
      "stateMutability": "nonpayable",
      "type": "function"
    }
  ],
  "bytecode": "0x6101606040523480156200001257600080fd5b506040518060400160405280600481526020016347544c3160e01b81525080604051806040016040528060018152602001603160f81b8152506040518060400160405280601381526020017f476f7665726e616e636520546f6b656e204c31000000000000000000000000008152506040518060400160405280600481526020016347544c3160e01b8152508160039081620000af919062000988565b506004620000be828262000988565b50620000d09150839050600562000195565b61012052620000e181600662000195565b61014052815160208084019190912060e052815190820120610100524660a0526200016f60e05161010051604080517f8b73c3c69bb8fe3d512ecc4cf759cc79239f7b179b0ffacaa9a75d522b39400f60208201529081019290925260608201524660808201523060a082015260009060c00160405160208183030381529060405280519060200120905090565b60805250503060c052506200018f3369152d02c7e14af6800000620001ce565b62000b58565b6000602083511015620001b557620001ad8362000210565b9050620001c8565b81620001c2848262000988565b5060ff90505b92915050565b6001600160a01b038216620001fe5760405163ec442f0560e01b8152600060048201526024015b60405180910390fd5b6200020c6000838362000253565b5050565b600080829050601f815111156200023e578260405163305a27a960e01b8152600401620001f5919062000a54565b80516200024b8262000aa4565b179392505050565b6200026083838362000265565b505050565b62000272838383620002d4565b6001600160a01b038316620002c75760006200028d60025490565b90506001600160d01b0380821115620002c457604051630e58ae9360e11b81526004810183905260248101829052604401620001f5565b50505b6200026083838362000407565b6001600160a01b03831662000303578060026000828254620002f7919062000adf565b90915550620003779050565b6001600160a01b03831660009081526020819052604090205481811015620003585760405163391434e360e21b81526001600160a01b03851660048201526024810182905260448101839052606401620001f5565b6001600160a01b03841660009081526020819052604090209082900390555b6001600160a01b0382166200039557600280548290039055620003b4565b6001600160a01b03821660009081526020819052604090208054820190555b816001600160a01b0316836001600160a01b03167fddf252ad1be2c89b69c2b068fc378daa952ba7f163c4a11628f55a4df523b3ef83604051620003fa91815260200190565b60405180910390a3505050565b6001600160a01b0383166200043c5762000439600a620008e56200049f60201b176200043384620004b4565b620004ee565b50505b6001600160a01b0382166200046b5762000468600a620008f16200052b60201b176200043384620004b4565b50505b6001600160a01b03838116600090815260086020526040808220548584168352912054620002609291821691168362000539565b6000620004ad828462000af5565b9392505050565b60006001600160d01b03821115620004ea576040516306dfcc6560e41b815260d0600482015260248101839052604401620001f5565b5090565b6000806200051e620004ff620006a0565b620005156200050e88620006b1565b868860201c565b87919062000700565b915091505b935093915050565b6000620004ad828462000b1f565b816001600160a01b0316836001600160a01b0316141580156200055c5750600081115b1562000260576001600160a01b03831615620005ff576001600160a01b038316600090815260096020908152604082208291620005aa91906200052b901b620008f1176200043386620004b4565b6001600160d01b031691506001600160d01b03169150846001600160a01b0316600080516020620029dd8339815191528383604051620005f4929190918252602082015260400190565b60405180910390a250505b6001600160a01b0382161562000260576001600160a01b0382166000908152600960209081526040822082916200064791906200049f901b620008e5176200043386620004b4565b6001600160d01b031691506001600160d01b03169150836001600160a01b0316600080516020620029dd833981519152838360405162000691929190918252602082015260400190565b60405180910390a25050505050565b6000620006ac62000710565b905090565b80546000908015620006f757620006dd83620006cf60018462000b42565b600091825260209091200190565b54660100000000000090046001600160d01b0316620004ad565b60009392505050565b6000806200051e8585856200071d565b6000620006ac43620008af565b825460009081908015620008505760006200073f87620006cf60018562000b42565b60408051808201909152905465ffffffffffff80821680845266010000000000009092046001600160d01b0316602084015291925090871610156200079757604051632520601d60e01b815260040160405180910390fd5b805165ffffffffffff808816911603620007eb5784620007be88620006cf60018662000b42565b80546001600160d01b039290921666010000000000000265ffffffffffff9092169190911790556200083f565b6040805180820190915265ffffffffffff80881682526001600160d01b0380881660208085019182528b54600181018d5560008d815291909120945191519092166601000000000000029216919091179101555b602001519250839150620005239050565b50506040805180820190915265ffffffffffff80851682526001600160d01b0380851660208085019182528854600181018a5560008a815291822095519251909316660100000000000002919093161792019190915590508162000523565b600065ffffffffffff821115620004ea576040516306dfcc6560e41b81526030600482015260248101839052604401620001f5565b634e487b7160e01b600052604160045260246000fd5b600181811c908216806200090f57607f821691505b6020821081036200093057634e487b7160e01b600052602260045260246000fd5b50919050565b601f8211156200026057600081815260208120601f850160051c810160208610156200095f5750805b601f850160051c820191505b8181101562000980578281556001016200096b565b505050505050565b81516001600160401b03811115620009a457620009a4620008e4565b620009bc81620009b58454620008fa565b8462000936565b602080601f831160018114620009f45760008415620009db5750858301515b600019600386901b1c1916600185901b17855562000980565b600085815260208120601f198616915b8281101562000a255788860151825594840194600190910190840162000a04565b508582101562000a445787850151600019600388901b60f8161c191681555b5050505050600190811b01905550565b600060208083528351808285015260005b8181101562000a835785810183015185820160400152820162000a65565b506000604082860101526040601f19601f8301168501019250505092915050565b80516020808301519190811015620009305760001960209190910360031b1b16919050565b634e487b7160e01b600052601160045260246000fd5b80820180821115620001c857620001c862000ac9565b6001600160d01b0381811683821601908082111562000b185762000b1862000ac9565b5092915050565b6001600160d01b0382811682821603908082111562000b185762000b1862000ac9565b81810381811115620001c857620001c862000ac9565b60805160a05160c05160e051610100516101205161014051611e2a62000bb36000396000610cf501526000610cc801526000610ac601526000610a9e015260006109f901526000610a2301526000610a4d0152611e2a6000f3fe608060405234801561001057600080fd5b506004361061014d5760003560e01c806370a08231116100c35780639ab24eb01161007c5780639ab24eb0146102fc578063a9059cbb1461030f578063c3cda52014610322578063d505accf14610335578063dd62ed3e14610348578063f1127ed81461038157600080fd5b806370a082311461026b5780637ecebe001461029457806384b0196e146102a75780638e539e8c146102c257806391ddadf4146102d557806395d89b41146102f457600080fd5b80633644e515116101155780633644e515146101c75780633a46b1a8146101cf5780634bf5d7e9146101e2578063587cde1e146101ea5780635c19a95c1461022e5780636fcfff451461024357600080fd5b806306fdde0314610152578063095ea7b31461017057806318160ddd1461019357806323b872dd146101a5578063313ce567146101b8575b600080fd5b61015a6103c0565b6040516101679190611a2e565b60405180910390f35b61018361017e366004611a5d565b610452565b6040519015158152602001610167565b6002545b604051908152602001610167565b6101836101b3366004611a87565b61046c565b60405160128152602001610167565b610197610490565b6101976101dd366004611a5d565b61049f565b61015a610525565b6102166101f8366004611ac3565b6001600160a01b039081166000908152600860205260409020541690565b6040516001600160a01b039091168152602001610167565b61024161023c366004611ac3565b61059d565b005b610256610251366004611ac3565b6105ac565b60405163ffffffff9091168152602001610167565b610197610279366004611ac3565b6001600160a01b031660009081526020819052604090205490565b6101976102a2366004611ac3565b6105b7565b6102af6105c2565b6040516101679796959493929190611ade565b6101976102d0366004611b74565b610608565b6102dd610672565b60405165ffffffffffff9091168152602001610167565b61015a61067c565b61019761030a366004611ac3565b61068b565b61018361031d366004611a5d565b6106bb565b610241610330366004611b9e565b6106c9565b610241610343366004611bf6565b610786565b610197610356366004611c60565b6001600160a01b03918216600090815260016020908152604080832093909416825291909152205490565b61039461038f366004611c93565b6108c0565b60408051825165ffffffffffff1681526020928301516001600160d01b03169281019290925201610167565b6060600380546103cf90611cd3565b80601f01602080910402602001604051908101604052809291908181526020018280546103fb90611cd3565b80156104485780601f1061041d57610100808354040283529160200191610448565b820191906000526020600020905b81548152906001019060200180831161042b57829003601f168201915b5050505050905090565b6000336104608185856108fd565b60019150505b92915050565b60003361047a85828561090f565b61048585858561098d565b506001949350505050565b600061049a6109ec565b905090565b6000806104aa610672565b90508065ffffffffffff1683106104ea57604051637669fc0f60e11b81526004810184905265ffffffffffff821660248201526044015b60405180910390fd5b6105146104f684610b17565b6001600160a01b038616600090815260096020526040902090610b4e565b6001600160d01b0316949350505050565b606061052f610c04565b65ffffffffffff1661053f610672565b65ffffffffffff1614610565576040516301bfc1c560e61b815260040160405180910390fd5b5060408051808201909152601d81527f6d6f64653d626c6f636b6e756d6265722666726f6d3d64656661756c74000000602082015290565b336105a88183610c0f565b5050565b600061046682610c81565b600061046682610ca3565b6000606080600080600060606105d6610cc1565b6105de610cee565b60408051600080825260208201909252600f60f81b9b939a50919850469750309650945092509050565b600080610613610672565b90508065ffffffffffff16831061064e57604051637669fc0f60e11b81526004810184905265ffffffffffff821660248201526044016104e1565b61066261065a84610b17565b600a90610b4e565b6001600160d01b03169392505050565b600061049a610c04565b6060600480546103cf90611cd3565b6001600160a01b03811660009081526009602052604081206106ac90610d1b565b6001600160d01b031692915050565b60003361046081858561098d565b834211156106ed57604051632341d78760e11b8152600481018590526024016104e1565b604080517fe48329057bfd03d55e49b547132e39cffd9c1820ad7b9d4c5307691425d15adf60208201526001600160a01b0388169181019190915260608101869052608081018590526000906107679061075f9060a00160405160208183030381529060405280519060200120610d54565b858585610d81565b90506107738187610daf565b61077d8188610c0f565b50505050505050565b834211156107aa5760405163313c898160e11b8152600481018590526024016104e1565b60007f6e71edae12b1b97f4d1f60370fef10105fa2faae0126114a169c64845d6126c98888886107f78c6001600160a01b0316600090815260076020526040902080546001810190915590565b6040805160208101969096526001600160a01b0394851690860152929091166060840152608083015260a082015260c0810186905260e001604051602081830303815290604052805190602001209050600061085282610d54565b9050600061086282878787610d81565b9050896001600160a01b0316816001600160a01b0316146108a9576040516325c0072360e11b81526001600160a01b0380831660048301528b1660248201526044016104e1565b6108b48a8a8a6108fd565b50505050505050505050565b60408051808201909152600080825260208201526108de8383610e02565b9392505050565b60006108de8284611d23565b60006108de8284611d4a565b61090a8383836001610e38565b505050565b6001600160a01b038381166000908152600160209081526040808320938616835292905220546000198114610987578181101561097857604051637dc7a0d960e11b81526001600160a01b038416600482015260248101829052604481018390526064016104e1565b61098784848484036000610e38565b50505050565b6001600160a01b0383166109b757604051634b637e8f60e11b8152600060048201526024016104e1565b6001600160a01b0382166109e15760405163ec442f0560e01b8152600060048201526024016104e1565b61090a838383610f0d565b6000306001600160a01b037f000000000000000000000000000000000000000000000000000000000000000016148015610a4557507f000000000000000000000000000000000000000000000000000000000000000046145b15610a6f57507f000000000000000000000000000000000000000000000000000000000000000090565b61049a604080517f8b73c3c69bb8fe3d512ecc4cf759cc79239f7b179b0ffacaa9a75d522b39400f60208201527f0000000000000000000000000000000000000000000000000000000000000000918101919091527f000000000000000000000000000000000000000000000000000000000000000060608201524660808201523060a082015260009060c00160405160208183030381529060405280519060200120905090565b600065ffffffffffff821115610b4a576040516306dfcc6560e41b815260306004820152602481018390526044016104e1565b5090565b815460009081816005811115610bad576000610b6984610f18565b610b739085611d6a565b60008881526020902090915081015465ffffffffffff9081169087161015610b9d57809150610bab565b610ba8816001611d7d565b92505b505b6000610bbb87878585611000565b90508015610bf657610be087610bd2600184611d6a565b600091825260209091200190565b54600160301b90046001600160d01b0316610bf9565b60005b979650505050505050565b600061049a43610b17565b6001600160a01b0382811660008181526008602052604080822080548686166001600160a01b0319821681179092559151919094169392849290917f3134e8a2e6d97e929a7e54011ea5485d7d196dd5f0ba4d4ef95803e8e3fc257f9190a461090a8183610c7c86611062565b611080565b6001600160a01b038116600090815260096020526040812054610466906111ec565b6001600160a01b038116600090815260076020526040812054610466565b606061049a7f0000000000000000000000000000000000000000000000000000000000000000600561121d565b606061049a7f0000000000000000000000000000000000000000000000000000000000000000600661121d565b80546000908015610d4b57610d3583610bd2600184611d6a565b54600160301b90046001600160d01b03166108de565b60009392505050565b6000610466610d616109ec565b8360405161190160f01b8152600281019290925260228201526042902090565b600080600080610d93888888886112c8565b925092509250610da38282611397565b50909695505050505050565b6001600160a01b038216600090815260076020526040902080546001810190915581811461090a576040516301d4b62360e61b81526001600160a01b0384166004820152602481018290526044016104e1565b60408051808201909152600080825260208201526001600160a01b03831660009081526009602052604090206108de9083611450565b6001600160a01b038416610e625760405163e602df0560e01b8152600060048201526024016104e1565b6001600160a01b038316610e8c57604051634a1406b160e11b8152600060048201526024016104e1565b6001600160a01b038085166000908152600160209081526040808320938716835292905220829055801561098757826001600160a01b0316846001600160a01b03167f8c5be1e5ebec7d5bd14f71427d1e84f3dd0314c0f7b2291e5b200ac8c7c3b92584604051610eff91815260200190565b60405180910390a350505050565b61090a8383836114c0565b600081600003610f2a57506000919050565b60006001610f3784611527565b901c6001901b90506001818481610f5057610f50611d90565b048201901c90506001818481610f6857610f68611d90565b048201901c90506001818481610f8057610f80611d90565b048201901c90506001818481610f9857610f98611d90565b048201901c90506001818481610fb057610fb0611d90565b048201901c90506001818481610fc857610fc8611d90565b048201901c90506001818481610fe057610fe0611d90565b048201901c90506108de81828581610ffa57610ffa611d90565b046115bb565b60005b8183101561105a57600061101784846115d1565b60008781526020902090915065ffffffffffff86169082015465ffffffffffff16111561104657809250611054565b611051816001611d7d565b93505b50611003565b509392505050565b6001600160a01b038116600090815260208190526040812054610466565b816001600160a01b0316836001600160a01b0316141580156110a25750600081115b1561090a576001600160a01b0383161561114a576001600160a01b038316600090815260096020526040812081906110e5906108f16110e0866115ec565b611620565b6001600160d01b031691506001600160d01b03169150846001600160a01b03167fdec2bacdd2f05b59de34da9b523dff8be42e5e38e818c82fdb0bae774387a724838360405161113f929190918252602082015260400190565b60405180910390a250505b6001600160a01b0382161561090a576001600160a01b03821660009081526009602052604081208190611183906108e56110e0866115ec565b6001600160d01b031691506001600160d01b03169150836001600160a01b03167fdec2bacdd2f05b59de34da9b523dff8be42e5e38e818c82fdb0bae774387a72483836040516111dd929190918252602082015260400190565b60405180910390a25050505050565b600063ffffffff821115610b4a576040516306dfcc6560e41b815260206004820152602481018390526044016104e1565b606060ff83146112375761123083611659565b9050610466565b81805461124390611cd3565b80601f016020809104026020016040519081016040528092919081815260200182805461126f90611cd3565b80156112bc5780601f10611291576101008083540402835291602001916112bc565b820191906000526020600020905b81548152906001019060200180831161129f57829003601f168201915b50505050509050610466565b600080807f7fffffffffffffffffffffffffffffff5d576e7357a4501ddfe92f46681b20a0841115611303575060009150600390508261138d565b604080516000808252602082018084528a905260ff891692820192909252606081018790526080810186905260019060a0016020604051602081039080840390855afa158015611357573d6000803e3d6000fd5b5050604051601f1901519150506001600160a01b0381166113835750600092506001915082905061138d565b9250600091508190505b9450945094915050565b60008260038111156113ab576113ab611da6565b036113b4575050565b60018260038111156113c8576113c8611da6565b036113e65760405163f645eedf60e01b815260040160405180910390fd5b60028260038111156113fa576113fa611da6565b0361141b5760405163fce698f760e01b8152600481018290526024016104e1565b600382600381111561142f5761142f611da6565b036105a8576040516335e2f38360e21b8152600481018290526024016104e1565b6040805180820190915260008082526020820152826000018263ffffffff168154811061147f5761147f611dbc565b60009182526020918290206040805180820190915291015465ffffffffffff81168252600160301b90046001600160d01b0316918101919091529392505050565b6114cb838383611698565b6001600160a01b03831661151c5760006114e460025490565b90506001600160d01b038082111561151957604051630e58ae9360e11b815260048101839052602481018290526044016104e1565b50505b61090a8383836117c2565b600080608083901c1561153c57608092831c92015b604083901c1561154e57604092831c92015b602083901c1561156057602092831c92015b601083901c1561157257601092831c92015b600883901c1561158457600892831c92015b600483901c1561159657600492831c92015b600283901c156115a857600292831c92015b600183901c156104665760010192915050565b60008183106115ca57816108de565b5090919050565b60006115e06002848418611dd2565b6108de90848416611d7d565b60006001600160d01b03821115610b4a576040516306dfcc6560e41b815260d06004820152602481018390526044016104e1565b60008061164c61162e610672565b61164461163a88610d1b565b868863ffffffff16565b879190611838565b915091505b935093915050565b6060600061166683611846565b604080516020808252818301909252919250600091906020820181803683375050509182525060208101929092525090565b6001600160a01b0383166116c35780600260008282546116b89190611d7d565b909155506117359050565b6001600160a01b038316600090815260208190526040902054818110156117165760405163391434e360e21b81526001600160a01b038516600482015260248101829052604481018390526064016104e1565b6001600160a01b03841660009081526020819052604090209082900390555b6001600160a01b03821661175157600280548290039055611770565b6001600160a01b03821660009081526020819052604090208054820190555b816001600160a01b0316836001600160a01b03167fddf252ad1be2c89b69c2b068fc378daa952ba7f163c4a11628f55a4df523b3ef836040516117b591815260200190565b60405180910390a3505050565b6001600160a01b0383166117e4576117e1600a6108e56110e0846115ec565b50505b6001600160a01b03821661180657611803600a6108f16110e0846115ec565b50505b6001600160a01b0383811660009081526008602052604080822054858416835291205461090a92918216911683611080565b60008061164c85858561186e565b600060ff8216601f81111561046657604051632cd44ac360e21b815260040160405180910390fd5b82546000908190801561198d57600061188c87610bd2600185611d6a565b60408051808201909152905465ffffffffffff808216808452600160301b9092046001600160d01b0316602084015291925090871610156118e057604051632520601d60e01b815260040160405180910390fd5b805165ffffffffffff80881691160361192c578461190388610bd2600186611d6a565b80546001600160d01b0392909216600160301b0265ffffffffffff90921691909117905561197d565b6040805180820190915265ffffffffffff80881682526001600160d01b0380881660208085019182528b54600181018d5560008d81529190912094519151909216600160301b029216919091179101555b6020015192508391506116519050565b50506040805180820190915265ffffffffffff80851682526001600160d01b0380851660208085019182528854600181018a5560008a815291822095519251909316600160301b029190931617920191909155905081611651565b6000815180845260005b81811015611a0e576020818501810151868301820152016119f2565b506000602082860101526020601f19601f83011685010191505092915050565b6020815260006108de60208301846119e8565b80356001600160a01b0381168114611a5857600080fd5b919050565b60008060408385031215611a7057600080fd5b611a7983611a41565b946020939093013593505050565b600080600060608486031215611a9c57600080fd5b611aa584611a41565b9250611ab360208501611a41565b9150604084013590509250925092565b600060208284031215611ad557600080fd5b6108de82611a41565b60ff60f81b881681526000602060e081840152611afe60e084018a6119e8565b8381036040850152611b10818a6119e8565b606085018990526001600160a01b038816608086015260a0850187905284810360c0860152855180825283870192509083019060005b81811015611b6257835183529284019291840191600101611b46565b50909c9b505050505050505050505050565b600060208284031215611b8657600080fd5b5035919050565b803560ff81168114611a5857600080fd5b60008060008060008060c08789031215611bb757600080fd5b611bc087611a41565b95506020870135945060408701359350611bdc60608801611b8d565b92506080870135915060a087013590509295509295509295565b600080600080600080600060e0888a031215611c1157600080fd5b611c1a88611a41565b9650611c2860208901611a41565b95506040880135945060608801359350611c4460808901611b8d565b925060a0880135915060c0880135905092959891949750929550565b60008060408385031215611c7357600080fd5b611c7c83611a41565b9150611c8a60208401611a41565b90509250929050565b60008060408385031215611ca657600080fd5b611caf83611a41565b9150602083013563ffffffff81168114611cc857600080fd5b809150509250929050565b600181811c90821680611ce757607f821691505b602082108103611d0757634e487b7160e01b600052602260045260246000fd5b50919050565b634e487b7160e01b600052601160045260246000fd5b6001600160d01b03818116838216019080821115611d4357611d43611d0d565b5092915050565b6001600160d01b03828116828216039080821115611d4357611d43611d0d565b8181038181111561046657610466611d0d565b8082018082111561046657610466611d0d565b634e487b7160e01b600052601260045260246000fd5b634e487b7160e01b600052602160045260246000fd5b634e487b7160e01b600052603260045260246000fd5b600082611def57634e487b7160e01b600052601260045260246000fd5b50049056fea2646970667358221220529b52998a5fd3b31740a19f019dc8c77f02ce00e48d48e8e97252e512acfd5664736f6c63430008140033dec2bacdd2f05b59de34da9b523dff8be42e5e38e818c82fdb0bae774387a724",
  "linkReferences": {},
  "deployedLinkReferences": {}
}